{
  "contractName": "CoinFlip",
  "abi": [
    {
      "inputs": [],
      "payable": false,
      "stateMutability": "nonpayable",
      "type": "constructor"
    },
    {
      "anonymous": false,
      "inputs": [
        {
          "indexed": false,
          "internalType": "uint256",
          "name": "amount",
          "type": "uint256"
        },
        {
          "indexed": false,
          "internalType": "string",
          "name": "marker",
          "type": "string"
        }
      ],
      "name": "gambleLost",
      "type": "event"
    },
    {
      "anonymous": false,
      "inputs": [
        {
          "indexed": false,
          "internalType": "uint256",
          "name": "amount",
          "type": "uint256"
        },
        {
          "indexed": false,
          "internalType": "string",
          "name": "marker",
          "type": "string"
        }
      ],
      "name": "gambleWon",
      "type": "event"
    },
    {
      "anonymous": false,
      "inputs": [
        {
          "indexed": false,
          "internalType": "string",
          "name": "description",
          "type": "string"
        }
      ],
      "name": "logNewProvableQuery",
      "type": "event"
    },
    {
      "constant": true,
      "inputs": [
        {
          "internalType": "address",
          "name": "",
          "type": "address"
        }
      ],
      "name": "accounts",
      "outputs": [
        {
          "internalType": "uint256",
          "name": "balance",
          "type": "uint256"
        },
        {
          "internalType": "bool",
          "name": "gambling",
          "type": "bool"
        }
      ],
      "payable": false,
      "stateMutability": "view",
      "type": "function"
    },
    {
      "constant": true,
      "inputs": [
        {
          "internalType": "uint256",
          "name": "",
          "type": "uint256"
        }
      ],
      "name": "betsList",
      "outputs": [
        {
          "internalType": "uint256",
          "name": "",
          "type": "uint256"
        }
      ],
      "payable": false,
      "stateMutability": "view",
      "type": "function"
    },
    {
      "constant": true,
      "inputs": [
        {
          "internalType": "uint256",
          "name": "",
          "type": "uint256"
        }
      ],
      "name": "betsPlaced",
      "outputs": [
        {
          "internalType": "bytes32",
          "name": "_queryID",
          "type": "bytes32"
        },
        {
          "internalType": "uint256",
          "name": "amountGambled",
          "type": "uint256"
        },
        {
          "internalType": "address",
          "name": "gambler",
          "type": "address"
        },
        {
          "internalType": "uint256",
          "name": "gamblersPick",
          "type": "uint256"
        },
        {
          "internalType": "uint256",
          "name": "outcome",
          "type": "uint256"
        }
      ],
      "payable": false,
      "stateMutability": "view",
      "type": "function"
    },
    {
      "constant": true,
      "inputs": [],
      "name": "latestNumber",
      "outputs": [
        {
          "internalType": "uint256",
          "name": "",
          "type": "uint256"
        }
      ],
      "payable": false,
      "stateMutability": "view",
      "type": "function"
    },
    {
      "constant": false,
      "inputs": [
        {
          "internalType": "uint256",
          "name": "userCoinFacePick",
          "type": "uint256"
        }
      ],
      "name": "gamble",
      "outputs": [],
      "payable": true,
      "stateMutability": "payable",
      "type": "function"
    },
    {
      "constant": true,
      "inputs": [],
      "name": "checkBalance",
      "outputs": [
        {
          "internalType": "uint256",
          "name": "",
          "type": "uint256"
        }
      ],
      "payable": false,
      "stateMutability": "view",
      "type": "function"
    },
    {
      "constant": false,
      "inputs": [],
      "name": "withdrawAll",
      "outputs": [
        {
          "internalType": "uint256",
          "name": "",
          "type": "uint256"
        }
      ],
      "payable": false,
      "stateMutability": "nonpayable",
      "type": "function"
    },
    {
      "constant": false,
      "inputs": [
        {
          "internalType": "bytes32",
          "name": "_myid",
          "type": "bytes32"
        },
        {
          "internalType": "string",
          "name": "_result",
          "type": "string"
        }
      ],
      "name": "__callback",
      "outputs": [],
      "payable": false,
      "stateMutability": "nonpayable",
      "type": "function"
    },
    {
      "constant": false,
      "inputs": [
        {
          "internalType": "bytes32",
          "name": "_queryID",
          "type": "bytes32"
        },
        {
          "internalType": "string",
          "name": "_result",
          "type": "string"
        },
        {
          "internalType": "bytes",
          "name": "_proof",
          "type": "bytes"
        }
      ],
      "name": "__callback",
      "outputs": [],
      "payable": false,
      "stateMutability": "nonpayable",
      "type": "function"
    },
    {
      "constant": false,
      "inputs": [
        {
          "internalType": "uint256",
          "name": "amountGambled",
          "type": "uint256"
        },
        {
          "internalType": "uint256",
          "name": "userCoinFacePick",
          "type": "uint256"
        }
      ],
      "name": "update",
      "outputs": [],
      "payable": true,
      "stateMutability": "payable",
      "type": "function"
    },
    {
      "constant": false,
      "inputs": [
        {
          "internalType": "bytes32",
          "name": "_queryID",
          "type": "bytes32"
        }
      ],
      "name": "_Payout",
      "outputs": [
        {
          "internalType": "uint256",
          "name": "",
          "type": "uint256"
        }
      ],
      "payable": false,
      "stateMutability": "nonpayable",
      "type": "function"
    },
    {
      "constant": true,
      "inputs": [],
      "name": "returnTotalBets",
      "outputs": [
        {
          "internalType": "uint256",
          "name": "",
          "type": "uint256"
        }
      ],
      "payable": false,
      "stateMutability": "view",
      "type": "function"
    },
    {
      "constant": true,
      "inputs": [],
      "name": "currentlyGambling",
      "outputs": [
        {
          "internalType": "string",
          "name": "",
          "type": "string"
        }
      ],
      "payable": false,
      "stateMutability": "view",
      "type": "function"
    },
    {
      "constant": true,
      "inputs": [],
      "name": "totalWinnings",
      "outputs": [
        {
          "internalType": "uint256",
          "name": "",
          "type": "uint256"
        }
      ],
      "payable": false,
      "stateMutability": "view",
      "type": "function"
    }
  ],
  "bytecode": "0x608060405234801561001057600080fd5b506000600660003373ffffffffffffffffffffffffffffffffffffffff1673ffffffffffffffffffffffffffffffffffffffff168152602001908152602001600020600001819055506000600660003373ffffffffffffffffffffffffffffffffffffffff1673ffffffffffffffffffffffffffffffffffffffff16815260200190815260200160002060010160006101000a81548160ff021916908315150217905550613277806100c36000396000f3fe6080604052600436106100dd5760003560e01c8063853828b61161007f578063b72481f811610059578063b72481f8146105e0578063c71daccb1461060b578063dc34b0aa14610636578063e43869d214610661576100dd565b8063853828b61461053b5780639a30879c14610566578063b04dbb57146105b5576100dd565b806336eaa092116100bb57806336eaa0921461027c57806338bbfa50146103135780635e5c06e21461047c5780637b2d4e36146104ec576100dd565b806327dc297e146100e25780632cc67061146101b45780632fb565e814610244575b600080fd5b3480156100ee57600080fd5b506101b26004803603604081101561010557600080fd5b81019080803590602001909291908035906020019064010000000081111561012c57600080fd5b82018360208201111561013e57600080fd5b8035906020019184600183028401116401000000008311171561016057600080fd5b91908080601f016020809104026020016040519081016040528093929190818152602001838380828437600081840152601f19601f82011690508083019250505050505050919291929050505061068f565b005b3480156101c057600080fd5b506101c96106d2565b6040518080602001828103825283818151815260200191508051906020019080838360005b838110156102095780820151818401526020810190506101ee565b50505050905090810190601f1680156102365780820380516001836020036101000a031916815260200191505b509250505060405180910390f35b61027a6004803603604081101561025a57600080fd5b810190808035906020019092919080359060200190929190505050610816565b005b34801561028857600080fd5b506102b56004803603602081101561029f57600080fd5b8101908080359060200190929190505050610962565b604051808681526020018581526020018473ffffffffffffffffffffffffffffffffffffffff1673ffffffffffffffffffffffffffffffffffffffff1681526020018381526020018281526020019550505050505060405180910390f35b34801561031f57600080fd5b5061047a6004803603606081101561033657600080fd5b81019080803590602001909291908035906020019064010000000081111561035d57600080fd5b82018360208201111561036f57600080fd5b8035906020019184600183028401116401000000008311171561039157600080fd5b91908080601f016020809104026020016040519081016040528093929190818152602001838380828437600081840152601f19601f820116905080830192505050505050509192919290803590602001906401000000008111156103f457600080fd5b82018360208201111561040657600080fd5b8035906020019184600183028401116401000000008311171561042857600080fd5b91908080601f016020809104026020016040519081016040528093929190818152602001838380828437600081840152601f19601f8201169050808301925050505050505091929192905050506109b8565b005b34801561048857600080fd5b506104cb6004803603602081101561049f57600080fd5b81019080803573ffffffffffffffffffffffffffffffffffffffff169060200190929190505050610b53565b60405180838152602001821515151581526020019250505060405180910390f35b3480156104f857600080fd5b506105256004803603602081101561050f57600080fd5b8101908080359060200190929190505050610b84565b6040518082815260200191505060405180910390f35b34801561054757600080fd5b50610550610ba5565b6040518082815260200191505060405180910390f35b34801561057257600080fd5b5061059f6004803603602081101561058957600080fd5b8101908080359060200190929190505050610cc0565b6040518082815260200191505060405180910390f35b3480156105c157600080fd5b506105ca610f99565b6040518082815260200191505060405180910390f35b3480156105ec57600080fd5b506105f5610fa6565b6040518082815260200191505060405180910390f35b34801561061757600080fd5b50610620611083565b6040518082815260200191505060405180910390f35b34801561064257600080fd5b5061064b6110cd565b6040518082815260200191505060405180910390f35b61068d6004803603602081101561067757600080fd5b81019080803590602001909291905050506110d3565b005b6106ce828260006040519080825280601f01601f1916602001820160405280156106c85781602001600182028038833980820191505090505b506109b8565b5050565b606060011515600660003373ffffffffffffffffffffffffffffffffffffffff1673ffffffffffffffffffffffffffffffffffffffff16815260200190815260200160002060010160009054906101000a900460ff16151514156107735760606040518060400160405280601581526020017f596f75204861766520612042657420506c616365640000000000000000000000815250905080915050610813565b60001515600660003373ffffffffffffffffffffffffffffffffffffffff1673ffffffffffffffffffffffffffffffffffffffff16815260200190815260200160002060010160009054906101000a900460ff16151514156108125760606040518060400160405280601381526020017f596f752043616e20506c61636520612042657400000000000000000000000000815250905080915050610813565b5b90565b600080905060006203d0909050600061083183600184611219565b905060006008805490509050346007600083815260200190815260200160002060010181905550816007600083815260200190815260200160002060000181905550336007600083815260200190815260200160002060020160006101000a81548173ffffffffffffffffffffffffffffffffffffffff021916908373ffffffffffffffffffffffffffffffffffffffff16021790555084600760008381526020019081526020016000206003018190555060088190806001815401808255809150509060018203906000526020600020016000909192909190915055507f94f2559b5e2b297de3db1587daf2352e872ada3dad01dab9ee3733592fa22ed360405180806020018281038252602881526020018061321b6028913960400191505060405180910390a1505050505050565b60076020528060005260406000206000915090508060000154908060010154908060020160009054906101000a900473ffffffffffffffffffffffffffffffffffffffff16908060030154908060040154905085565b6109c06117b4565b73ffffffffffffffffffffffffffffffffffffffff163373ffffffffffffffffffffffffffffffffffffffff16146109f757600080fd5b60006002836040516020018082805190602001908083835b60208310610a325780518252602082019150602081019050602083039250610a0f565b6001836020036101000a0380198251168184511680821785525050505050509050019150506040516020818303038152906040528051906020012060001c81610a7757fe5b069050806005819055506000610a8c85611ad1565b9050600554600760008381526020019081526020016000206004018190555060006007600083815260200190815260200160002060020160009054906101000a900473ffffffffffffffffffffffffffffffffffffffff1690506000600660008373ffffffffffffffffffffffffffffffffffffffff1673ffffffffffffffffffffffffffffffffffffffff16815260200190815260200160002060010160006101000a81548160ff021916908315150217905550610b4a86610cc0565b50505050505050565b60066020528060005260406000206000915090508060000154908060010160009054906101000a900460ff16905082565b60088181548110610b9157fe5b906000526020600020016000915090505481565b60003373ffffffffffffffffffffffffffffffffffffffff166108fc600660003373ffffffffffffffffffffffffffffffffffffffff1673ffffffffffffffffffffffffffffffffffffffff168152602001908152602001600020600001549081150290604051600060405180830381858888f19350505050158015610c2f573d6000803e3d6000fd5b506000600660003373ffffffffffffffffffffffffffffffffffffffff1673ffffffffffffffffffffffffffffffffffffffff16815260200190815260200160002060000181905550600660003373ffffffffffffffffffffffffffffffffffffffff1673ffffffffffffffffffffffffffffffffffffffff16815260200190815260200160002060000154905090565b600080610ccc83611ad1565b9050600060076000838152602001908152602001600020600101549050600760008381526020019081526020016000206004015460076000848152602001908152602001600020600301541415610e1c5760028102600660003373ffffffffffffffffffffffffffffffffffffffff1673ffffffffffffffffffffffffffffffffffffffff1681526020019081526020016000206000015401600660003373ffffffffffffffffffffffffffffffffffffffff1673ffffffffffffffffffffffffffffffffffffffff168152602001908152602001600020600001819055507fec27c96aec3ebc069e05182c03903975d5bbe6c7f4f779d77f7587a887a6128f816040518082815260200180602001828103825260038152602001807f576f6e00000000000000000000000000000000000000000000000000000000008152506020019250505060405180910390a15b6007600083815260200190815260200160002060040154600760008481526020019081526020016000206003015414610f4b5780600660003373ffffffffffffffffffffffffffffffffffffffff1673ffffffffffffffffffffffffffffffffffffffff1681526020019081526020016000206000015403600660003373ffffffffffffffffffffffffffffffffffffffff1673ffffffffffffffffffffffffffffffffffffffff168152602001908152602001600020600001819055507fcf2eef3721a1c2d654258fa536af37d30a10f891414e807e1048ec6c69401bbf816040518082815260200180602001828103825260048152602001807f4c6f7374000000000000000000000000000000000000000000000000000000008152506020019250505060405180910390a15b80600660003373ffffffffffffffffffffffffffffffffffffffff1673ffffffffffffffffffffffffffffffffffffffff168152602001908152602001600020600001540192505050919050565b6000600880549050905090565b6000806001905060006008805490501415610fc5576000915050611080565b60008090505b60088054905081101561107a576007600060088381548110610fe957fe5b9060005260206000200154815260200190815260200160002060040154600760006008848154811061101757fe5b9060005260206000200154815260200190815260200160002060030154141561106d57600760006008838154811061104b57fe5b9060005260206000200154815260200190815260200160002060010154820191505b8080600101915050610fcb565b50809150505b90565b6000600660003373ffffffffffffffffffffffffffffffffffffffff1673ffffffffffffffffffffffffffffffffffffffff16815260200190815260200160002060000154905090565b60055481565b6000349050600182111561114f576040517f08c379a000000000000000000000000000000000000000000000000000000000815260040180806020018281038252601a8152602001807f4d7573742043686f6f7365204865616473206f72205461696c7300000000000081525060200191505060405180910390fd5b60011515600660003373ffffffffffffffffffffffffffffffffffffffff1673ffffffffffffffffffffffffffffffffffffffff16815260200190815260200160002060010160009054906101000a900460ff16151514156111b057600080fd5b6001600660003373ffffffffffffffffffffffffffffffffffffffff1673ffffffffffffffffffffffffffffffffffffffff16815260200190815260200160002060010160006101000a81548160ff0219169083151502179055506112158183610816565b5050565b6000808311801561122b575060208311155b61123457600080fd5b600a84029350606060016040519080825280601f01601f1916602001820160405280156112705781602001600182028038833980820191505090505b5090508360f81b8160008151811061128457fe5b60200101907effffffffffffffffffffffffffffffffffffffffffffffffffffffffffffff1916908160001a905350606060206040519080825280601f01601f1916602001820160405280156112e95781602001600182028038833980820191505090505b509050606060206040519080825280601f01601f1916602001820160405280156113225781602001600182028038833980820191505090505b509050600061132f611b37565b905060208352424118600143034018602084015260208252806020830152606060206040519080825280601f01601f1916602001820160405280156113835781602001600182028038833980820191505090505b509050886020820152606060086040519080825280601f01601f1916602001820160405280156113c25781602001600182028038833980820191505090505b5090506113d58260186008846000611e54565b506113de613134565b604051806080016040528087815260200188815260200186815260200184815250905060006114436040518060400160405280600681526020017f72616e646f6d0000000000000000000000000000000000000000000000000000815250838c611eb3565b9050606060086040519080825280601f01601f19166020018201604052801561147b5781602001600182028038833980820191505090505b50905060208401517f0100000000000000000000000000000000000000000000000000000000000000810460278301537e01000000000000000000000000000000000000000000000000000000000000810460268301537d010000000000000000000000000000000000000000000000000000000000810460258301537c0100000000000000000000000000000000000000000000000000000000810460248301537b01000000000000000000000000000000000000000000000000000000810460238301537a0100000000000000000000000000000000000000000000000000008104602283015379010000000000000000000000000000000000000000000000000081046021830153780100000000000000000000000000000000000000000000000081046020830153506117a18282856001600481106115ba57fe5b60200201516002876000600481106115ce57fe5b60200201516040518082805190602001908083835b6020831061160657805182526020820191506020810190506020830392506115e3565b6001836020036101000a038019825116818451168082178552505050505050905001915050602060405180830381855afa158015611648573d6000803e3d6000fd5b5050506040513d602081101561165d57600080fd5b81019080805190602001909291905050508760026004811061167b57fe5b60200201516040516020018085805190602001908083835b602083106116b65780518252602082019150602081019050602083039250611693565b6001836020036101000a03801982511681845116808217855250505050505090500184805190602001908083835b6020831061170757805182526020820191506020810190506020830392506116e4565b6001836020036101000a03801982511681845116808217855250505050505090500183815260200182805190602001908083835b6020831061175e578051825260208201915060208101905060208303925061173b565b6001836020036101000a03801982511681845116808217855250505050505090500194505050505060405160208183030381529060405280519060200120612220565b8199505050505050505050509392505050565b60008073ffffffffffffffffffffffffffffffffffffffff16600160009054906101000a900473ffffffffffffffffffffffffffffffffffffffff1673ffffffffffffffffffffffffffffffffffffffff16148061183c5750600061183a600160009054906101000a900473ffffffffffffffffffffffffffffffffffffffff1661223c565b145b1561184d5761184b6000612247565b505b600160009054906101000a900473ffffffffffffffffffffffffffffffffffffffff1673ffffffffffffffffffffffffffffffffffffffff166338cc48316040518163ffffffff1660e01b8152600401602060405180830381600087803b1580156118b757600080fd5b505af11580156118cb573d6000803e3d6000fd5b505050506040513d60208110156118e157600080fd5b810190808051906020019092919050505073ffffffffffffffffffffffffffffffffffffffff166000809054906101000a900473ffffffffffffffffffffffffffffffffffffffff1673ffffffffffffffffffffffffffffffffffffffff1614611a2a57600160009054906101000a900473ffffffffffffffffffffffffffffffffffffffff1673ffffffffffffffffffffffffffffffffffffffff166338cc48316040518163ffffffff1660e01b8152600401602060405180830381600087803b1580156119af57600080fd5b505af11580156119c3573d6000803e3d6000fd5b505050506040513d60208110156119d957600080fd5b81019080805190602001909291905050506000806101000a81548173ffffffffffffffffffffffffffffffffffffffff021916908373ffffffffffffffffffffffffffffffffffffffff1602179055505b6000809054906101000a900473ffffffffffffffffffffffffffffffffffffffff1673ffffffffffffffffffffffffffffffffffffffff1663c281d19e6040518163ffffffff1660e01b815260040160206040518083038186803b158015611a9157600080fd5b505afa158015611aa5573d6000803e3d6000fd5b505050506040513d6020811015611abb57600080fd5b8101908080519060200190929190505050905090565b600080600090505b6008805490508110611b3057826007600060088481548110611af757fe5b90600052602060002001548152602001908152602001600020600001541415611b235780915050611b32565b8080600101915050611ad9565b505b919050565b60008073ffffffffffffffffffffffffffffffffffffffff16600160009054906101000a900473ffffffffffffffffffffffffffffffffffffffff1673ffffffffffffffffffffffffffffffffffffffff161480611bbf57506000611bbd600160009054906101000a900473ffffffffffffffffffffffffffffffffffffffff1661223c565b145b15611bd057611bce6000612247565b505b600160009054906101000a900473ffffffffffffffffffffffffffffffffffffffff1673ffffffffffffffffffffffffffffffffffffffff166338cc48316040518163ffffffff1660e01b8152600401602060405180830381600087803b158015611c3a57600080fd5b505af1158015611c4e573d6000803e3d6000fd5b505050506040513d6020811015611c6457600080fd5b810190808051906020019092919050505073ffffffffffffffffffffffffffffffffffffffff166000809054906101000a900473ffffffffffffffffffffffffffffffffffffffff1673ffffffffffffffffffffffffffffffffffffffff1614611dad57600160009054906101000a900473ffffffffffffffffffffffffffffffffffffffff1673ffffffffffffffffffffffffffffffffffffffff166338cc48316040518163ffffffff1660e01b8152600401602060405180830381600087803b158015611d3257600080fd5b505af1158015611d46573d6000803e3d6000fd5b505050506040513d6020811015611d5c57600080fd5b81019080805190602001909291905050506000806101000a81548173ffffffffffffffffffffffffffffffffffffffff021916908373ffffffffffffffffffffffffffffffffffffffff1602179055505b6000809054906101000a900473ffffffffffffffffffffffffffffffffffffffff1673ffffffffffffffffffffffffffffffffffffffff1663abaa5f3e6040518163ffffffff1660e01b815260040160206040518083038186803b158015611e1457600080fd5b505afa158015611e28573d6000803e3d6000fd5b505050506040513d6020811015611e3e57600080fd5b8101908080519060200190929190505050905090565b6060600082850190508084511015611e6b57600080fd5b600086602001905060008460200190505b868860200101821015611ea45781890151808288015250602082019150602081019050611e7c565b85935050505095945050505050565b60008073ffffffffffffffffffffffffffffffffffffffff16600160009054906101000a900473ffffffffffffffffffffffffffffffffffffffff1673ffffffffffffffffffffffffffffffffffffffff161480611f3b57506000611f39600160009054906101000a900473ffffffffffffffffffffffffffffffffffffffff1661223c565b145b15611f4c57611f4a6000612247565b505b600160009054906101000a900473ffffffffffffffffffffffffffffffffffffffff1673ffffffffffffffffffffffffffffffffffffffff166338cc48316040518163ffffffff1660e01b8152600401602060405180830381600087803b158015611fb657600080fd5b505af1158015611fca573d6000803e3d6000fd5b505050506040513d6020811015611fe057600080fd5b810190808051906020019092919050505073ffffffffffffffffffffffffffffffffffffffff166000809054906101000a900473ffffffffffffffffffffffffffffffffffffffff1673ffffffffffffffffffffffffffffffffffffffff161461212957600160009054906101000a900473ffffffffffffffffffffffffffffffffffffffff1673ffffffffffffffffffffffffffffffffffffffff166338cc48316040518163ffffffff1660e01b8152600401602060405180830381600087803b1580156120ae57600080fd5b505af11580156120c2573d6000803e3d6000fd5b505050506040513d60208110156120d857600080fd5b81019080805190602001909291905050506000806101000a81548173ffffffffffffffffffffffffffffffffffffffff021916908373ffffffffffffffffffffffffffffffffffffffff1602179055505b6060600460405190808252806020026020018201604052801561216057816020015b606081526020019060019003908161214b5790505b5090508360006004811061217057fe5b60200201518160008151811061218257fe5b60200260200101819052508360016004811061219a57fe5b6020020151816001815181106121ac57fe5b6020026020010181905250836002600481106121c457fe5b6020020151816002815181106121d657fe5b6020026020010181905250836003600481106121ee57fe5b60200201518160038151811061220057fe5b6020026020010181905250612216858285612258565b9150509392505050565b8060036000848152602001908152602001600020819055505050565b6000813b9050919050565b60006122516127ba565b9050919050565b60008073ffffffffffffffffffffffffffffffffffffffff16600160009054906101000a900473ffffffffffffffffffffffffffffffffffffffff1673ffffffffffffffffffffffffffffffffffffffff1614806122e0575060006122de600160009054906101000a900473ffffffffffffffffffffffffffffffffffffffff1661223c565b145b156122f1576122ef6000612247565b505b600160009054906101000a900473ffffffffffffffffffffffffffffffffffffffff1673ffffffffffffffffffffffffffffffffffffffff166338cc48316040518163ffffffff1660e01b8152600401602060405180830381600087803b15801561235b57600080fd5b505af115801561236f573d6000803e3d6000fd5b505050506040513d602081101561238557600080fd5b810190808051906020019092919050505073ffffffffffffffffffffffffffffffffffffffff166000809054906101000a900473ffffffffffffffffffffffffffffffffffffffff1673ffffffffffffffffffffffffffffffffffffffff16146124ce57600160009054906101000a900473ffffffffffffffffffffffffffffffffffffffff1673ffffffffffffffffffffffffffffffffffffffff166338cc48316040518163ffffffff1660e01b8152600401602060405180830381600087803b15801561245357600080fd5b505af1158015612467573d6000803e3d6000fd5b505050506040513d602081101561247d57600080fd5b81019080805190602001909291905050506000806101000a81548173ffffffffffffffffffffffffffffffffffffffff021916908373ffffffffffffffffffffffffffffffffffffffff1602179055505b60008060009054906101000a900473ffffffffffffffffffffffffffffffffffffffff1673ffffffffffffffffffffffffffffffffffffffff16632ef3accc86856040518363ffffffff1660e01b81526004018080602001838152602001828103825284818151815260200191508051906020019080838360005b83811015612564578082015181840152602081019050612549565b50505050905090810190601f1680156125915780820380516001836020036101000a031916815260200191505b509350505050602060405180830381600087803b1580156125b157600080fd5b505af11580156125c5573d6000803e3d6000fd5b505050506040513d60208110156125db57600080fd5b81019080805190602001909291905050509050823a02670de0b6b3a76400000181111561260e576000801b9150506127b3565b606061261985612d11565b90506000809054906101000a900473ffffffffffffffffffffffffffffffffffffffff1673ffffffffffffffffffffffffffffffffffffffff1663c55c1cb68360008985896040518663ffffffff1660e01b8152600401808581526020018060200180602001848152602001838103835286818151815260200191508051906020019080838360005b838110156126bd5780820151818401526020810190506126a2565b50505050905090810190601f1680156126ea5780820380516001836020036101000a031916815260200191505b50838103825285818151815260200191508051906020019080838360005b83811015612723578082015181840152602081019050612708565b50505050905090810190601f1680156127505780820380516001836020036101000a031916815260200191505b5096505050505050506020604051808303818588803b15801561277257600080fd5b505af1158015612786573d6000803e3d6000fd5b50505050506040513d602081101561279d57600080fd5b8101908080519060200190929190505050925050505b9392505050565b6000806127da731d3b2638a7cc9f2cb3d298a3da7a90b67e5506ed61223c565b111561287c57731d3b2638a7cc9f2cb3d298a3da7a90b67e5506ed600160006101000a81548173ffffffffffffffffffffffffffffffffffffffff021916908373ffffffffffffffffffffffffffffffffffffffff1602179055506128736040518060400160405280600b81526020017f6574685f6d61696e6e6574000000000000000000000000000000000000000000815250612d91565b60019050612d0e565b600061289b73c03a2615d5efaf5f49f60b7bb6583eaec212fdf161223c565b111561293d5773c03a2615d5efaf5f49f60b7bb6583eaec212fdf1600160006101000a81548173ffffffffffffffffffffffffffffffffffffffff021916908373ffffffffffffffffffffffffffffffffffffffff1602179055506129346040518060400160405280600c81526020017f6574685f726f707374656e330000000000000000000000000000000000000000815250612d91565b60019050612d0e565b600061295c73b7a07bcf2ba2f2703b24c0691b5278999c59ac7e61223c565b11156129fe5773b7a07bcf2ba2f2703b24c0691b5278999c59ac7e600160006101000a81548173ffffffffffffffffffffffffffffffffffffffff021916908373ffffffffffffffffffffffffffffffffffffffff1602179055506129f56040518060400160405280600981526020017f6574685f6b6f76616e0000000000000000000000000000000000000000000000815250612d91565b60019050612d0e565b6000612a1d73146500cfd35b22e4a392fe0adc06de1a1368ed4861223c565b1115612abf5773146500cfd35b22e4a392fe0adc06de1a1368ed48600160006101000a81548173ffffffffffffffffffffffffffffffffffffffff021916908373ffffffffffffffffffffffffffffffffffffffff160217905550612ab66040518060400160405280600b81526020017f6574685f72696e6b656279000000000000000000000000000000000000000000815250612d91565b60019050612d0e565b6000612ade73a2998efd205fb9d4b4963afb70778d6354ad3a4161223c565b1115612b805773a2998efd205fb9d4b4963afb70778d6354ad3a41600160006101000a81548173ffffffffffffffffffffffffffffffffffffffff021916908373ffffffffffffffffffffffffffffffffffffffff160217905550612b776040518060400160405280600a81526020017f6574685f676f65726c6900000000000000000000000000000000000000000000815250612d91565b60019050612d0e565b6000612b9f736f485c8bf6fc43ea212e93bbf8ce046c7f1cb47561223c565b1115612c0357736f485c8bf6fc43ea212e93bbf8ce046c7f1cb475600160006101000a81548173ffffffffffffffffffffffffffffffffffffffff021916908373ffffffffffffffffffffffffffffffffffffffff16021790555060019050612d0e565b6000612c227320e12a1f859b3feae5fb2a0a32c18f5a65555bbf61223c565b1115612c86577320e12a1f859b3feae5fb2a0a32c18f5a65555bbf600160006101000a81548173ffffffffffffffffffffffffffffffffffffffff021916908373ffffffffffffffffffffffffffffffffffffffff16021790555060019050612d0e565b6000612ca57351efaf4c8b3c9afbd5ab9f4bbc82784ab6ef8faa61223c565b1115612d09577351efaf4c8b3c9afbd5ab9f4bbc82784ab6ef8faa600160006101000a81548173ffffffffffffffffffffffffffffffffffffffff021916908373ffffffffffffffffffffffffffffffffffffffff16021790555060019050612d0e565b600090505b90565b6060612d1b612dab565b612d2361315b565b612d2f81610400612db7565b612d3881612e01565b60008090505b8351811015612d7a57612d6d848281518110612d5657fe5b602002602001015183612e0f90919063ffffffff16565b8080600101915050612d3e565b50612d8481612e34565b8060000151915050919050565b8060029080519060200190612da7929190613175565b5050565b60405180590338823950565b6000819050600060208281612dc857fe5b0614612de15760208181612dd857fe5b06602003810190505b808360200181815250506040518084526000815281810160405250505050565b612e0c816004612e42565b50565b612e1c8260028351612e63565b612e2f8183612fa390919063ffffffff16565b505050565b612e3f816007612e42565b50565b612e5f601f60058360ff16901b178361304e90919063ffffffff16565b5050565b60178111612e8f57612e8a8160058460ff16901b60ff16178461304e90919063ffffffff16565b612f9e565b60ff8111612ed057612eb4601860058460ff16901b178461304e90919063ffffffff16565b612eca8160018561308e9092919063ffffffff16565b50612f9d565b61ffff8111612f1257612ef6601960058460ff16901b178461304e90919063ffffffff16565b612f0c8160028561308e9092919063ffffffff16565b50612f9c565b63ffffffff8111612f5657612f3a601a60058460ff16901b178461304e90919063ffffffff16565b612f508160048561308e9092919063ffffffff16565b50612f9b565b67ffffffffffffffff8111612f9a57612f82601b60058460ff16901b178461304e90919063ffffffff16565b612f988160088561308e9092919063ffffffff16565b505b5b5b5b5b505050565b612fab61315b565b82602001518360000151518351011115612fdb57612fda836002612fd4866020015186516130f5565b02613111565b5b60008060008451905085518051602081830101945086518101825260208701935050505b602081106130225781518352602083019250602082019150602081039050612fff565b60006001826020036101000a039050801983511681855116818117865250508694505050505092915050565b8160200151600183600001515101111561307457613073826002846020015102613111565b5b815180516020818301018381536001820183525050505050565b61309661315b565b8360200151846000015151830111156130c4576130c38460026130bd8760200151866130f5565b02613111565b5b60006001836101000a0390508451805184818301018684198251161781528582018352505050849150509392505050565b6000818311156131075782905061310b565b8190505b92915050565b6060826000015190506131248383612db7565b61312e8382612fa3565b50505050565b60405180608001604052806004905b60608152602001906001900390816131435790505090565b604051806040016040528060608152602001600081525090565b828054600181600116156101000203166002900490600052602060002090601f016020900481019282601f106131b657805160ff19168380011785556131e4565b828001600101855582156131e4579182015b828111156131e35782518255916020019190600101906131c8565b5b5090506131f191906131f5565b5090565b61321791905b808211156132135760008160009055506001016131fb565b5090565b9056fe47616d626c6520616464656420746f2071756575652c207761697420666f722043616c6c4261636ba265627a7a72315820c8bb2227fccb295afa773432faf6644b75f4674186d5161bccad906af74c87e864736f6c634300050c0032",
  "source": "pragma solidity 0.5.12;\nimport \"./ownable.sol\";\nimport \"./ProvableAPI.sol\";\n\ncontract CoinFlip is usingProvable{\n\n  //vaiables for API call\n  uint256 constant NUM_RANDOM_BYTES_REQUESTED = 1;\n  uint256 public latestNumber;\n\n  //struct for accounts\n  struct account{\n    uint balance;\n    bool gambling;\n  }\n  //mapping array to hold accounts\n  mapping (address => account) public accounts;\n\n  //struct to hold the information on bets\n  struct bet{\n    bytes32 _queryID;\n    uint256 amountGambled;\n    address gambler;\n    uint gamblersPick;\n    uint256 outcome;\n  }\n\n  //mapping for users balance and connecting _queryIDs to bets, struct to enumerate list of bets\n  mapping (uint => bet) public betsPlaced;\n  uint[] public betsList;\n\n\n  //events for each function\n  event logNewProvableQuery(string description); //update\n  event gambleWon(uint amount, string marker); //_Payout\n  event gambleLost(uint amount, string marker); //_payout\n\n  //calls update() at launch to get a random number initally\n    constructor() public{\n        accounts[msg.sender].balance = 0;\n        accounts[msg.sender].gambling = false;\n    }\n\n    // function that takes users choice and amount to gamble, calls API, and pays out results\n  function gamble(uint userCoinFacePick) payable public {\n    uint256 amountGambled = msg.value;\n    //require users to pick a side of Coin\n    require(userCoinFacePick <= 1 , \"Must Choose Heads or Tails\");\n    //require user not to be gambling\n    require(accounts[msg.sender].gambling != true);\n    accounts[msg.sender].gambling = true;\n\n    //integrate update funciton\n    update(amountGambled, userCoinFacePick);\n  }\n\n    //gets current users balance\n    function checkBalance() public view returns(uint){\n      return accounts[msg.sender].balance;\n    }\n\n    //allows user to withdraw funds\n    function withdrawAll() public returns(uint){\n      msg.sender.transfer(accounts[msg.sender].balance);\n      accounts[msg.sender].balance = 0;\n      return accounts[msg.sender].balance;\n    }\n\n    // Random Number Generator and Callback functions\n    function __callback(bytes32 _queryID, string memory _result, bytes memory _proof) public{\n      require(msg.sender == provable_cbAddress());\n      uint256 randomNumber = uint256(keccak256(abi.encodePacked(_result))) % 2;\n      latestNumber = randomNumber;\n     //Get betID for payout function\n      uint __betID = getBetID(_queryID);\n      betsPlaced[__betID].outcome = latestNumber;\n      address gambler = betsPlaced[__betID].gambler;\n      accounts[gambler].gambling = false;\n      //Take amount, coinFlip, and user choice to create Payout\n      _Payout(_queryID);\n    }\n\n\n    function update(uint256 amountGambled, uint userCoinFacePick) public payable{\n        uint256 QUERY_EXECUTION_DELAY = 0;\n        uint256 GAS_FOR_CALLBACK = 250000;\n        bytes32 _queryID = provable_newRandomDSQuery(\n          QUERY_EXECUTION_DELAY,\n          NUM_RANDOM_BYTES_REQUESTED,\n          GAS_FOR_CALLBACK\n          );\n          //map bytes32 to bet and push to betsList\n          uint betIDNumber = betsList.length;\n          betsPlaced[betIDNumber].amountGambled = msg.value;\n          betsPlaced[betIDNumber]._queryID = _queryID;\n          betsPlaced[betIDNumber].gambler = msg.sender;\n          betsPlaced[betIDNumber].gamblersPick = userCoinFacePick;\n          betsList.push(betIDNumber);\n          emit logNewProvableQuery(\"Gamble added to queue, wait for CallBack\");\n        }\n\n    //function that pays out based on results\n    function _Payout(bytes32 _queryID) public returns(uint){\n      uint __betID = getBetID(_queryID);\n      uint256 amountGambled = betsPlaced[__betID].amountGambled;\n      if (betsPlaced[__betID].gamblersPick == betsPlaced[__betID].outcome){\n        accounts[msg.sender].balance = accounts[msg.sender].balance + (amountGambled * 2);\n        emit gambleWon(amountGambled, \"Won\");\n      }\n      if (betsPlaced[__betID].gamblersPick != betsPlaced[__betID].outcome){\n        accounts[msg.sender].balance = accounts[msg.sender].balance - amountGambled;\n        emit gambleLost(amountGambled, \"Lost\");\n      }\n      return (accounts[msg.sender].balance + amountGambled);\n\n    }\n\n    //allows js to get total bets placed to call\n    function returnTotalBets() public view returns(uint){\n      return betsList.length;\n    }\n\n    function currentlyGambling()public view returns(string memory){\n      if(accounts[msg.sender].gambling == true){\n        string memory x = \"You Have a Bet Placed\";\n        return (x);\n      }\n      if (accounts[msg.sender].gambling == false){\n        string memory y = \"You Can Place a Bet\";\n        return (y);\n      }\n    }\n\n    function getBetID(bytes32 _queryID) private view returns(uint){\n        for(uint i=0; i>=betsList.length; i++){\n            if(betsPlaced[betsList[i]]._queryID == _queryID){\n                return i;\n            }\n        }\n    }\n\n    function totalWinnings() external view returns(uint256){\n       uint256 Winnings = 1;\n       if(betsList.length == 0){\n         return 0;\n       }\n       else{\n         for(uint i = 0 ; i<betsList.length; i++){\n            if(betsPlaced[betsList[i]].gamblersPick == betsPlaced[betsList[i]].outcome){\n               Winnings += betsPlaced[betsList[i]].amountGambled;\n            }\n        }\n        return Winnings;\n    }\n  }\n}\n",
  "sourcePath": "/Users/Kaiju/Desktop/Courses/IoT/ETH SC201/coinflip/contracts/Coinflip.sol",
  "compiler": {
    "name": "solc",
    "version": "0.5.12+commit.7709ece9.Emscripten.clang"
  },
  "schemaVersion": "3.3.3",
  "updatedAt": "2021-02-23T03:29:35.306Z",
  "devdoc": {
    "methods": {
      "__callback(bytes32,string)": {
        "details": "The following `__callback` functions are just placeholders ideally     meant to be defined in child contract when proofs are used.     The function bodies simply silence compiler warnings."
      }
    }
  },
  "userdoc": {
    "methods": {}
  }
}