{
  "contractName": "CoinFlip",
  "abi": [
    {
      "inputs": [],
      "payable": false,
      "stateMutability": "nonpayable",
      "type": "constructor"
    },
    {
      "anonymous": false,
      "inputs": [
        {
          "indexed": false,
          "internalType": "uint256",
          "name": "funds",
          "type": "uint256"
        }
      ],
      "name": "depositReceived",
      "type": "event"
    },
    {
      "anonymous": false,
      "inputs": [
        {
          "indexed": false,
          "internalType": "uint256",
          "name": "amount",
          "type": "uint256"
        },
        {
          "indexed": false,
          "internalType": "string",
          "name": "marker",
          "type": "string"
        }
      ],
      "name": "gambleLost",
      "type": "event"
    },
    {
      "anonymous": false,
      "inputs": [
        {
          "indexed": false,
          "internalType": "uint256",
          "name": "amount",
          "type": "uint256"
        },
        {
          "indexed": false,
          "internalType": "string",
          "name": "marker",
          "type": "string"
        }
      ],
      "name": "gambleWon",
      "type": "event"
    },
    {
      "anonymous": false,
      "inputs": [
        {
          "indexed": false,
          "internalType": "uint256",
          "name": "randomNumber",
          "type": "uint256"
        }
      ],
      "name": "generateRandomNumber",
      "type": "event"
    },
    {
      "anonymous": false,
      "inputs": [
        {
          "indexed": false,
          "internalType": "string",
          "name": "description",
          "type": "string"
        }
      ],
      "name": "logNewProvableQuery",
      "type": "event"
    },
    {
      "constant": true,
      "inputs": [
        {
          "internalType": "address",
          "name": "",
          "type": "address"
        }
      ],
      "name": "accounts",
      "outputs": [
        {
          "internalType": "uint256",
          "name": "balance",
          "type": "uint256"
        },
        {
          "internalType": "bool",
          "name": "gambling",
          "type": "bool"
        }
      ],
      "payable": false,
      "stateMutability": "view",
      "type": "function"
    },
    {
      "constant": true,
      "inputs": [
        {
          "internalType": "uint256",
          "name": "",
          "type": "uint256"
        }
      ],
      "name": "betsList",
      "outputs": [
        {
          "internalType": "bytes32",
          "name": "",
          "type": "bytes32"
        }
      ],
      "payable": false,
      "stateMutability": "view",
      "type": "function"
    },
    {
      "constant": true,
      "inputs": [
        {
          "internalType": "bytes32",
          "name": "",
          "type": "bytes32"
        }
      ],
      "name": "betsPlaced",
      "outputs": [
        {
          "internalType": "uint256",
          "name": "amountGambled",
          "type": "uint256"
        },
        {
          "internalType": "address",
          "name": "gambler",
          "type": "address"
        },
        {
          "internalType": "uint256",
          "name": "gamblersPick",
          "type": "uint256"
        },
        {
          "internalType": "uint256",
          "name": "outcome",
          "type": "uint256"
        }
      ],
      "payable": false,
      "stateMutability": "view",
      "type": "function"
    },
    {
      "constant": true,
      "inputs": [],
      "name": "latestNumber",
      "outputs": [
        {
          "internalType": "uint256",
          "name": "",
          "type": "uint256"
        }
      ],
      "payable": false,
      "stateMutability": "view",
      "type": "function"
    },
    {
      "constant": true,
      "inputs": [],
      "name": "owner",
      "outputs": [
        {
          "internalType": "address",
          "name": "",
          "type": "address"
        }
      ],
      "payable": false,
      "stateMutability": "view",
      "type": "function"
    },
    {
      "constant": false,
      "inputs": [],
      "name": "fundAccount",
      "outputs": [
        {
          "internalType": "uint256",
          "name": "",
          "type": "uint256"
        }
      ],
      "payable": true,
      "stateMutability": "payable",
      "type": "function"
    },
    {
      "constant": false,
      "inputs": [
        {
          "internalType": "uint256",
          "name": "amountGambled",
          "type": "uint256"
        },
        {
          "internalType": "uint256",
          "name": "userCoinFacePick",
          "type": "uint256"
        }
      ],
      "name": "gamble",
      "outputs": [],
      "payable": false,
      "stateMutability": "nonpayable",
      "type": "function"
    },
    {
      "constant": true,
      "inputs": [],
      "name": "checkBalance",
      "outputs": [
        {
          "internalType": "uint256",
          "name": "",
          "type": "uint256"
        }
      ],
      "payable": false,
      "stateMutability": "view",
      "type": "function"
    },
    {
      "constant": false,
      "inputs": [],
      "name": "withdrawAll",
      "outputs": [
        {
          "internalType": "uint256",
          "name": "",
          "type": "uint256"
        }
      ],
      "payable": false,
      "stateMutability": "nonpayable",
      "type": "function"
    },
    {
      "constant": false,
      "inputs": [
        {
          "internalType": "bytes32",
          "name": "_myid",
          "type": "bytes32"
        },
        {
          "internalType": "string",
          "name": "_result",
          "type": "string"
        }
      ],
      "name": "__callback",
      "outputs": [],
      "payable": false,
      "stateMutability": "nonpayable",
      "type": "function"
    },
    {
      "constant": false,
      "inputs": [
        {
          "internalType": "bytes32",
          "name": "_queryID",
          "type": "bytes32"
        },
        {
          "internalType": "string",
          "name": "_result",
          "type": "string"
        },
        {
          "internalType": "bytes",
          "name": "_proof",
          "type": "bytes"
        }
      ],
      "name": "__callback",
      "outputs": [],
      "payable": false,
      "stateMutability": "nonpayable",
      "type": "function"
    },
    {
      "constant": false,
      "inputs": [
        {
          "internalType": "uint256",
          "name": "amountGambled",
          "type": "uint256"
        },
        {
          "internalType": "uint256",
          "name": "userCoinFacePick",
          "type": "uint256"
        }
      ],
      "name": "update",
      "outputs": [],
      "payable": true,
      "stateMutability": "payable",
      "type": "function"
    },
    {
      "constant": false,
      "inputs": [
        {
          "internalType": "bytes32",
          "name": "_queryID",
          "type": "bytes32"
        }
      ],
      "name": "_Payout",
      "outputs": [
        {
          "internalType": "uint256",
          "name": "",
          "type": "uint256"
        }
      ],
      "payable": false,
      "stateMutability": "nonpayable",
      "type": "function"
    },
    {
      "constant": true,
      "inputs": [],
      "name": "returnTotalBets",
      "outputs": [
        {
          "internalType": "uint256",
          "name": "",
          "type": "uint256"
        }
      ],
      "payable": false,
      "stateMutability": "view",
      "type": "function"
    },
    {
      "constant": true,
      "inputs": [],
      "name": "currentlyGambling",
      "outputs": [
        {
          "internalType": "string",
          "name": "",
          "type": "string"
        }
      ],
      "payable": false,
      "stateMutability": "view",
      "type": "function"
    }
  ],
  "bytecode": "0x60806040523480156200001157600080fd5b50336000806101000a81548173ffffffffffffffffffffffffffffffffffffffff021916908373ffffffffffffffffffffffffffffffffffffffff16021790555062000066600060026200010f60201b60201c565b6000600760003373ffffffffffffffffffffffffffffffffffffffff1673ffffffffffffffffffffffffffffffffffffffff168152602001908152602001600020600001819055506000600760003373ffffffffffffffffffffffffffffffffffffffff1673ffffffffffffffffffffffffffffffffffffffff16815260200190815260200160002060010160006101000a81548160ff02191690831515021790555062002111565b6000809050600062030d409050600062000132836001846200025a60201b60201c565b9050846008600083815260200190815260200160002060000181905550336008600083815260200190815260200160002060010160006101000a81548173ffffffffffffffffffffffffffffffffffffffff021916908373ffffffffffffffffffffffffffffffffffffffff160217905550836008600083815260200190815260200160002060020181905550600a600860008381526020019081526020016000206003018190555060098190806001815401808255809150509060018203906000526020600020016000909192909190915055507f94f2559b5e2b297de3db1587daf2352e872ada3dad01dab9ee3733592fa22ed3604051808060200182810382526028815260200180620054df6028913960400191505060405180910390a15050505050565b600080831180156200026d575060208311155b6200027757600080fd5b600a84029350606060016040519080825280601f01601f191660200182016040528015620002b45781602001600182028038833980820191505090505b5090508360f81b81600081518110620002c957fe5b60200101907effffffffffffffffffffffffffffffffffffffffffffffffffffffffffffff1916908160001a905350606060206040519080825280601f01601f1916602001820160405280156200032f5781602001600182028038833980820191505090505b509050606060206040519080825280601f01601f191660200182016040528015620003695781602001600182028038833980820191505090505b50905060006200037e6200082d60201b60201c565b905060208352424118600143034018602084015260208252806020830152606060206040519080825280601f01601f191660200182016040528015620003d35781602001600182028038833980820191505090505b509050886020820152606060086040519080825280601f01601f191660200182016040528015620004135781602001600182028038833980820191505090505b5090506200042e826018600884600062000b6960201b60201c565b506200043962002020565b60405180608001604052808781526020018881526020018681526020018481525090506000620004a66040518060400160405280600681526020017f72616e646f6d0000000000000000000000000000000000000000000000000000815250838c62000bcb60201b60201c565b9050606060086040519080825280601f01601f191660200182016040528015620004df5781602001600182028038833980820191505090505b50905060208401517f0100000000000000000000000000000000000000000000000000000000000000810460278301537e01000000000000000000000000000000000000000000000000000000000000810460268301537d010000000000000000000000000000000000000000000000000000000000810460258301537c0100000000000000000000000000000000000000000000000000000000810460248301537b01000000000000000000000000000000000000000000000000000000810460238301537a0100000000000000000000000000000000000000000000000000008104602283015379010000000000000000000000000000000000000000000000000081046021830153780100000000000000000000000000000000000000000000000081046020830153506200081a8282856001600481106200062057fe5b60200201516002876000600481106200063557fe5b60200201516040518082805190602001908083835b602083106200066f57805182526020820191506020810190506020830392506200064a565b6001836020036101000a038019825116818451168082178552505050505050905001915050602060405180830381855afa158015620006b2573d6000803e3d6000fd5b5050506040513d6020811015620006c857600080fd5b810190808051906020019092919050505087600260048110620006e757fe5b60200201516040516020018085805190602001908083835b60208310620007245780518252602082019150602081019050602083039250620006ff565b6001836020036101000a03801982511681845116808217855250505050505090500184805190602001908083835b6020831062000777578051825260208201915060208101905060208303925062000752565b6001836020036101000a03801982511681845116808217855250505050505090500183815260200182805190602001908083835b60208310620007d05780518252602082019150602081019050602083039250620007ab565b6001836020036101000a0380198251168184511680821785525050505050509050019450505050506040516020818303038152906040528051906020012062000f6560201b60201c565b8199505050505050505050509392505050565b60008073ffffffffffffffffffffffffffffffffffffffff16600260009054906101000a900473ffffffffffffffffffffffffffffffffffffffff1673ffffffffffffffffffffffffffffffffffffffff161480620008be57506000620008bc600260009054906101000a900473ffffffffffffffffffffffffffffffffffffffff1662000f8160201b60201c565b145b15620008d857620008d6600062000f8c60201b60201c565b505b600260009054906101000a900473ffffffffffffffffffffffffffffffffffffffff1673ffffffffffffffffffffffffffffffffffffffff166338cc48316040518163ffffffff1660e01b8152600401602060405180830381600087803b1580156200094357600080fd5b505af115801562000958573d6000803e3d6000fd5b505050506040513d60208110156200096f57600080fd5b810190808051906020019092919050505073ffffffffffffffffffffffffffffffffffffffff16600160009054906101000a900473ffffffffffffffffffffffffffffffffffffffff1673ffffffffffffffffffffffffffffffffffffffff161462000abe57600260009054906101000a900473ffffffffffffffffffffffffffffffffffffffff1673ffffffffffffffffffffffffffffffffffffffff166338cc48316040518163ffffffff1660e01b8152600401602060405180830381600087803b15801562000a4057600080fd5b505af115801562000a55573d6000803e3d6000fd5b505050506040513d602081101562000a6c57600080fd5b8101908080519060200190929190505050600160006101000a81548173ffffffffffffffffffffffffffffffffffffffff021916908373ffffffffffffffffffffffffffffffffffffffff1602179055505b600160009054906101000a900473ffffffffffffffffffffffffffffffffffffffff1673ffffffffffffffffffffffffffffffffffffffff1663abaa5f3e6040518163ffffffff1660e01b815260040160206040518083038186803b15801562000b2757600080fd5b505afa15801562000b3c573d6000803e3d6000fd5b505050506040513d602081101562000b5357600080fd5b8101908080519060200190929190505050905090565b606060008285019050808451101562000b8157600080fd5b600086602001905060008460200190505b86886020010182101562000bbc578189015180828801525060208201915060208101905062000b92565b85935050505095945050505050565b60008073ffffffffffffffffffffffffffffffffffffffff16600260009054906101000a900473ffffffffffffffffffffffffffffffffffffffff1673ffffffffffffffffffffffffffffffffffffffff16148062000c5c5750600062000c5a600260009054906101000a900473ffffffffffffffffffffffffffffffffffffffff1662000f8160201b60201c565b145b1562000c765762000c74600062000f8c60201b60201c565b505b600260009054906101000a900473ffffffffffffffffffffffffffffffffffffffff1673ffffffffffffffffffffffffffffffffffffffff166338cc48316040518163ffffffff1660e01b8152600401602060405180830381600087803b15801562000ce157600080fd5b505af115801562000cf6573d6000803e3d6000fd5b505050506040513d602081101562000d0d57600080fd5b810190808051906020019092919050505073ffffffffffffffffffffffffffffffffffffffff16600160009054906101000a900473ffffffffffffffffffffffffffffffffffffffff1673ffffffffffffffffffffffffffffffffffffffff161462000e5c57600260009054906101000a900473ffffffffffffffffffffffffffffffffffffffff1673ffffffffffffffffffffffffffffffffffffffff166338cc48316040518163ffffffff1660e01b8152600401602060405180830381600087803b15801562000dde57600080fd5b505af115801562000df3573d6000803e3d6000fd5b505050506040513d602081101562000e0a57600080fd5b8101908080519060200190929190505050600160006101000a81548173ffffffffffffffffffffffffffffffffffffffff021916908373ffffffffffffffffffffffffffffffffffffffff1602179055505b6060600460405190808252806020026020018201604052801562000e9557816020015b606081526020019060019003908162000e7f5790505b5090508360006004811062000ea657fe5b60200201518160008151811062000eb957fe5b60200260200101819052508360016004811062000ed257fe5b60200201518160018151811062000ee557fe5b60200260200101819052508360026004811062000efe57fe5b60200201518160028151811062000f1157fe5b60200260200101819052508360036004811062000f2a57fe5b60200201518160038151811062000f3d57fe5b602002602001018190525062000f5b85828562000fa560201b60201c565b9150509392505050565b8060046000848152602001908152602001600020819055505050565b6000813b9050919050565b600062000f9e6200153d60201b60201c565b9050919050565b60008073ffffffffffffffffffffffffffffffffffffffff16600260009054906101000a900473ffffffffffffffffffffffffffffffffffffffff1673ffffffffffffffffffffffffffffffffffffffff161480620010365750600062001034600260009054906101000a900473ffffffffffffffffffffffffffffffffffffffff1662000f8160201b60201c565b145b1562001050576200104e600062000f8c60201b60201c565b505b600260009054906101000a900473ffffffffffffffffffffffffffffffffffffffff1673ffffffffffffffffffffffffffffffffffffffff166338cc48316040518163ffffffff1660e01b8152600401602060405180830381600087803b158015620010bb57600080fd5b505af1158015620010d0573d6000803e3d6000fd5b505050506040513d6020811015620010e757600080fd5b810190808051906020019092919050505073ffffffffffffffffffffffffffffffffffffffff16600160009054906101000a900473ffffffffffffffffffffffffffffffffffffffff1673ffffffffffffffffffffffffffffffffffffffff16146200123657600260009054906101000a900473ffffffffffffffffffffffffffffffffffffffff1673ffffffffffffffffffffffffffffffffffffffff166338cc48316040518163ffffffff1660e01b8152600401602060405180830381600087803b158015620011b857600080fd5b505af1158015620011cd573d6000803e3d6000fd5b505050506040513d6020811015620011e457600080fd5b8101908080519060200190929190505050600160006101000a81548173ffffffffffffffffffffffffffffffffffffffff021916908373ffffffffffffffffffffffffffffffffffffffff1602179055505b6000600160009054906101000a900473ffffffffffffffffffffffffffffffffffffffff1673ffffffffffffffffffffffffffffffffffffffff16632ef3accc86856040518363ffffffff1660e01b81526004018080602001838152602001828103825284818151815260200191508051906020019080838360005b83811015620012cf578082015181840152602081019050620012b2565b50505050905090810190601f168015620012fd5780820380516001836020036101000a031916815260200191505b509350505050602060405180830381600087803b1580156200131e57600080fd5b505af115801562001333573d6000803e3d6000fd5b505050506040513d60208110156200134a57600080fd5b81019080805190602001909291905050509050823a02670de0b6b3a7640000018111156200137f576000801b91505062001536565b6060620013928562001b0c60201b60201c565b9050600160009054906101000a900473ffffffffffffffffffffffffffffffffffffffff1673ffffffffffffffffffffffffffffffffffffffff1663c55c1cb68360008985896040518663ffffffff1660e01b8152600401808581526020018060200180602001848152602001838103835286818151815260200191508051906020019080838360005b83811015620014395780820151818401526020810190506200141c565b50505050905090810190601f168015620014675780820380516001836020036101000a031916815260200191505b50838103825285818151815260200191508051906020019080838360005b83811015620014a257808201518184015260208101905062001485565b50505050905090810190601f168015620014d05780820380516001836020036101000a031916815260200191505b5096505050505050506020604051808303818588803b158015620014f357600080fd5b505af115801562001508573d6000803e3d6000fd5b50505050506040513d60208110156200152057600080fd5b8101908080519060200190929190505050925050505b9392505050565b60008062001565731d3b2638a7cc9f2cb3d298a3da7a90b67e5506ed62000f8160201b60201c565b11156200161157731d3b2638a7cc9f2cb3d298a3da7a90b67e5506ed600260006101000a81548173ffffffffffffffffffffffffffffffffffffffff021916908373ffffffffffffffffffffffffffffffffffffffff160217905550620016076040518060400160405280600b81526020017f6574685f6d61696e6e657400000000000000000000000000000000000000000081525062001bc760201b60201c565b6001905062001b09565b60006200163873c03a2615d5efaf5f49f60b7bb6583eaec212fdf162000f8160201b60201c565b1115620016e45773c03a2615d5efaf5f49f60b7bb6583eaec212fdf1600260006101000a81548173ffffffffffffffffffffffffffffffffffffffff021916908373ffffffffffffffffffffffffffffffffffffffff160217905550620016da6040518060400160405280600c81526020017f6574685f726f707374656e33000000000000000000000000000000000000000081525062001bc760201b60201c565b6001905062001b09565b60006200170b73b7a07bcf2ba2f2703b24c0691b5278999c59ac7e62000f8160201b60201c565b1115620017b75773b7a07bcf2ba2f2703b24c0691b5278999c59ac7e600260006101000a81548173ffffffffffffffffffffffffffffffffffffffff021916908373ffffffffffffffffffffffffffffffffffffffff160217905550620017ad6040518060400160405280600981526020017f6574685f6b6f76616e000000000000000000000000000000000000000000000081525062001bc760201b60201c565b6001905062001b09565b6000620017de73146500cfd35b22e4a392fe0adc06de1a1368ed4862000f8160201b60201c565b11156200188a5773146500cfd35b22e4a392fe0adc06de1a1368ed48600260006101000a81548173ffffffffffffffffffffffffffffffffffffffff021916908373ffffffffffffffffffffffffffffffffffffffff160217905550620018806040518060400160405280600b81526020017f6574685f72696e6b65627900000000000000000000000000000000000000000081525062001bc760201b60201c565b6001905062001b09565b6000620018b173a2998efd205fb9d4b4963afb70778d6354ad3a4162000f8160201b60201c565b11156200195d5773a2998efd205fb9d4b4963afb70778d6354ad3a41600260006101000a81548173ffffffffffffffffffffffffffffffffffffffff021916908373ffffffffffffffffffffffffffffffffffffffff160217905550620019536040518060400160405280600a81526020017f6574685f676f65726c690000000000000000000000000000000000000000000081525062001bc760201b60201c565b6001905062001b09565b600062001984736f485c8bf6fc43ea212e93bbf8ce046c7f1cb47562000f8160201b60201c565b1115620019ea57736f485c8bf6fc43ea212e93bbf8ce046c7f1cb475600260006101000a81548173ffffffffffffffffffffffffffffffffffffffff021916908373ffffffffffffffffffffffffffffffffffffffff1602179055506001905062001b09565b600062001a117320e12a1f859b3feae5fb2a0a32c18f5a65555bbf62000f8160201b60201c565b111562001a77577320e12a1f859b3feae5fb2a0a32c18f5a65555bbf600260006101000a81548173ffffffffffffffffffffffffffffffffffffffff021916908373ffffffffffffffffffffffffffffffffffffffff1602179055506001905062001b09565b600062001a9e7351efaf4c8b3c9afbd5ab9f4bbc82784ab6ef8faa62000f8160201b60201c565b111562001b04577351efaf4c8b3c9afbd5ab9f4bbc82784ab6ef8faa600260006101000a81548173ffffffffffffffffffffffffffffffffffffffff021916908373ffffffffffffffffffffffffffffffffffffffff1602179055506001905062001b09565b600090505b90565b606062001b1e62001be360201b60201c565b62001b2862002048565b62001b418161040062001bef60201b62002efe1760201c565b62001b578162001c3c60201b62002f481760201c565b60008090505b835181101562001ba35762001b9584828151811062001b7857fe5b60200260200101518362001c5260201b62002f561790919060201c565b808060010191505062001b5d565b5062001bba8162001c8660201b62002f7b1760201c565b8060000151915050919050565b806003908051906020019062001bdf92919062002062565b5050565b60405180590338823950565b600081905060006020828162001c0157fe5b061462001c1c576020818162001c1357fe5b06602003810190505b808360200181815250506040518084526000815281810160405250505050565b62001c4f81600462001c9c60201b60201c565b50565b62001c67826002835162001cc460201b60201c565b62001c81818362001e4c60201b620030ea1790919060201c565b505050565b62001c9981600762001c9c60201b60201c565b50565b62001cc0601f60058360ff16901b178362001f0c60201b620031951790919060201c565b5050565b6017811162001cf95762001cf38160058460ff16901b60ff16178462001f0c60201b620031951790919060201c565b62001e47565b60ff811162001d4a5762001d26601860058460ff16901b178462001f0c60201b620031951790919060201c565b62001d438160018562001f5560201b620031d5179092919060201c565b5062001e46565b61ffff811162001d9c5762001d78601960058460ff16901b178462001f0c60201b620031951790919060201c565b62001d958160028562001f5560201b620031d5179092919060201c565b5062001e45565b63ffffffff811162001df05762001dcc601a60058460ff16901b178462001f0c60201b620031951790919060201c565b62001de98160048562001f5560201b620031d5179092919060201c565b5062001e44565b67ffffffffffffffff811162001e435762001e24601b60058460ff16901b178462001f0c60201b620031951790919060201c565b62001e418160088562001f5560201b620031d5179092919060201c565b505b5b5b5b5b505050565b62001e5662002048565b8260200151836000015151835101111562001e975762001e9683600262001e898660200151865162001fcf60201b60201c565b0262001fed60201b60201c565b5b60008060008451905085518051602081830101945086518101825260208701935050505b6020811062001ee0578151835260208301925060208201915060208103905062001ebb565b60006001826020036101000a039050801983511681855116818117865250508694505050505092915050565b8160200151600183600001515101111562001f3b5762001f3a82600284602001510262001fed60201b60201c565b5b815180516020818301018381536001820183525050505050565b62001f5f62002048565b83602001518460000151518301111562001f9e5762001f9d84600262001f9087602001518662001fcf60201b60201c565b0262001fed60201b60201c565b5b60006001836101000a0390508451805184818301018684198251161781528582018352505050849150509392505050565b60008183111562001fe35782905062001fe7565b8190505b92915050565b60608260000151905062002008838362001bef60201b60201c565b6200201a838262001e4c60201b60201c565b50505050565b60405180608001604052806004905b60608152602001906001900390816200202f5790505090565b604051806040016040528060608152602001600081525090565b828054600181600116156101000203166002900490600052602060002090601f016020900481019282601f10620020a557805160ff1916838001178555620020d6565b82800160010185558215620020d6579182015b82811115620020d5578251825591602001919060010190620020b8565b5b509050620020e59190620020e9565b5090565b6200210e91905b808211156200210a576000816000905550600101620020f0565b5090565b90565b6133be80620021216000396000f3fe6080604052600436106100e85760003560e01c8063853828b61161008a578063c71daccb11610059578063c71daccb146105f0578063d9a8748c1461061b578063dc34b0aa14610639578063e187899214610664576100e8565b8063853828b6146104f45780638da5cb5b1461051f5780639a30879c14610576578063b04dbb57146105c5576100e8565b80632fb565e8116100c65780632fb565e81461029457806338bbfa50146102cc5780635e5c06e2146104355780637b2d4e36146104a5576100e8565b806322e8c8fc146100ed57806327dc297e146101325780632cc6706114610204575b600080fd5b3480156100f957600080fd5b506101306004803603604081101561011057600080fd5b8101908080359060200190929190803590602001909291905050506106f4565b005b34801561013e57600080fd5b506102026004803603604081101561015557600080fd5b81019080803590602001909291908035906020019064010000000081111561017c57600080fd5b82018360208201111561018e57600080fd5b803590602001918460018302840111640100000000831117156101b057600080fd5b91908080601f016020809104026020016040519081016040528093929190818152602001838380828437600081840152601f19601f8201169050808301925050505050505091929192905050506108ed565b005b34801561021057600080fd5b50610219610930565b6040518080602001828103825283818151815260200191508051906020019080838360005b8381101561025957808201518184015260208101905061023e565b50505050905090810190601f1680156102865780820380516001836020036101000a031916815260200191505b509250505060405180910390f35b6102ca600480360360408110156102aa57600080fd5b810190808035906020019092919080359060200190929190505050610a74565b005b3480156102d857600080fd5b50610433600480360360608110156102ef57600080fd5b81019080803590602001909291908035906020019064010000000081111561031657600080fd5b82018360208201111561032857600080fd5b8035906020019184600183028401116401000000008311171561034a57600080fd5b91908080601f016020809104026020016040519081016040528093929190818152602001838380828437600081840152601f19601f820116905080830192505050505050509192919290803590602001906401000000008111156103ad57600080fd5b8201836020820111156103bf57600080fd5b803590602001918460018302840111640100000000831117156103e157600080fd5b91908080601f016020809104026020016040519081016040528093929190818152602001838380828437600081840152601f19601f820116905080830192505050505050509192919290505050610bb6565b005b34801561044157600080fd5b506104846004803603602081101561045857600080fd5b81019080803573ffffffffffffffffffffffffffffffffffffffff169060200190929190505050610d7a565b60405180838152602001821515151581526020019250505060405180910390f35b3480156104b157600080fd5b506104de600480360360208110156104c857600080fd5b8101908080359060200190929190505050610dab565b6040518082815260200191505060405180910390f35b34801561050057600080fd5b50610509610dcc565b6040518082815260200191505060405180910390f35b34801561052b57600080fd5b50610534610ee7565b604051808273ffffffffffffffffffffffffffffffffffffffff1673ffffffffffffffffffffffffffffffffffffffff16815260200191505060405180910390f35b34801561058257600080fd5b506105af6004803603602081101561059957600080fd5b8101908080359060200190929190505050610f0c565b6040518082815260200191505060405180910390f35b3480156105d157600080fd5b506105da6111d4565b6040518082815260200191505060405180910390f35b3480156105fc57600080fd5b506106056111e1565b6040518082815260200191505060405180910390f35b61062361122b565b6040518082815260200191505060405180910390f35b34801561064557600080fd5b5061064e611364565b6040518082815260200191505060405180910390f35b34801561067057600080fd5b5061069d6004803603602081101561068757600080fd5b810190808035906020019092919050505061136a565b604051808581526020018473ffffffffffffffffffffffffffffffffffffffff1673ffffffffffffffffffffffffffffffffffffffff16815260200183815260200182815260200194505050505060405180910390f35b81600760003373ffffffffffffffffffffffffffffffffffffffff1673ffffffffffffffffffffffffffffffffffffffff1681526020019081526020016000206000015410156107ac576040517f08c379a00000000000000000000000000000000000000000000000000000000081526004018080602001828103825260168152602001807f42616c616e6365206e6f742053756666696369656e740000000000000000000081525060200191505060405180910390fd5b6001811115610823576040517f08c379a000000000000000000000000000000000000000000000000000000000815260040180806020018281038252601a8152602001807f4d7573742043686f6f7365204865616473206f72205461696c7300000000000081525060200191505060405180910390fd5b60011515600760003373ffffffffffffffffffffffffffffffffffffffff1673ffffffffffffffffffffffffffffffffffffffff16815260200190815260200160002060010160009054906101000a900460ff161515141561088457600080fd5b6001600760003373ffffffffffffffffffffffffffffffffffffffff1673ffffffffffffffffffffffffffffffffffffffff16815260200190815260200160002060010160006101000a81548160ff0219169083151502179055506108e98282610a74565b5050565b61092c828260006040519080825280601f01601f1916602001820160405280156109265781602001600182028038833980820191505090505b50610bb6565b5050565b606060011515600760003373ffffffffffffffffffffffffffffffffffffffff1673ffffffffffffffffffffffffffffffffffffffff16815260200190815260200160002060010160009054906101000a900460ff16151514156109d15760606040518060400160405280600381526020017f4172650000000000000000000000000000000000000000000000000000000000815250905080915050610a71565b60001515600760003373ffffffffffffffffffffffffffffffffffffffff1673ffffffffffffffffffffffffffffffffffffffff16815260200190815260200160002060010160009054906101000a900460ff1615151415610a705760606040518060400160405280600781526020017f417265204e6f7400000000000000000000000000000000000000000000000000815250905080915050610a71565b5b90565b6000809050600062030d4090506000610a8f836001846113ba565b9050846008600083815260200190815260200160002060000181905550336008600083815260200190815260200160002060010160006101000a81548173ffffffffffffffffffffffffffffffffffffffff021916908373ffffffffffffffffffffffffffffffffffffffff160217905550836008600083815260200190815260200160002060020181905550600a600860008381526020019081526020016000206003018190555060098190806001815401808255809150509060018203906000526020600020016000909192909190915055507f94f2559b5e2b297de3db1587daf2352e872ada3dad01dab9ee3733592fa22ed36040518080602001828103825260288152602001806133626028913960400191505060405180910390a15050505050565b610bbe611955565b73ffffffffffffffffffffffffffffffffffffffff163373ffffffffffffffffffffffffffffffffffffffff1614610bf557600080fd5b60006002836040516020018082805190602001908083835b60208310610c305780518252602082019150602081019050602083039250610c0d565b6001836020036101000a0380198251168184511680821785525050505050509050019150506040516020818303038152906040528051906020012060001c81610c7557fe5b06905080600681905550600654600860008681526020019081526020016000206003018190555060006008600086815260200190815260200160002060010160009054906101000a900473ffffffffffffffffffffffffffffffffffffffff1690506000600760008373ffffffffffffffffffffffffffffffffffffffff1673ffffffffffffffffffffffffffffffffffffffff16815260200190815260200160002060010160006101000a81548160ff021916908315150217905550610d3b85610f0c565b507f4303707e98d7b86c6197a2b41914fc650bc708c7d3111930f2ec8ee7cf1cf394826040518082815260200191505060405180910390a15050505050565b60076020528060005260406000206000915090508060000154908060010160009054906101000a900460ff16905082565b60098181548110610db857fe5b906000526020600020016000915090505481565b60003373ffffffffffffffffffffffffffffffffffffffff166108fc600760003373ffffffffffffffffffffffffffffffffffffffff1673ffffffffffffffffffffffffffffffffffffffff168152602001908152602001600020600001549081150290604051600060405180830381858888f19350505050158015610e56573d6000803e3d6000fd5b506000600760003373ffffffffffffffffffffffffffffffffffffffff1673ffffffffffffffffffffffffffffffffffffffff16815260200190815260200160002060000181905550600760003373ffffffffffffffffffffffffffffffffffffffff1673ffffffffffffffffffffffffffffffffffffffff16815260200190815260200160002060000154905090565b6000809054906101000a900473ffffffffffffffffffffffffffffffffffffffff1681565b600080600860008481526020019081526020016000206000015490506008600084815260200190815260200160002060030154600860008581526020019081526020016000206002015414156110585780600760003373ffffffffffffffffffffffffffffffffffffffff1673ffffffffffffffffffffffffffffffffffffffff1681526020019081526020016000206000015401600760003373ffffffffffffffffffffffffffffffffffffffff1673ffffffffffffffffffffffffffffffffffffffff168152602001908152602001600020600001819055507fec27c96aec3ebc069e05182c03903975d5bbe6c7f4f779d77f7587a887a6128f816040518082815260200180602001828103825260038152602001807f576f6e00000000000000000000000000000000000000000000000000000000008152506020019250505060405180910390a15b60086000848152602001908152602001600020600301546008600085815260200190815260200160002060020154146111875780600760003373ffffffffffffffffffffffffffffffffffffffff1673ffffffffffffffffffffffffffffffffffffffff1681526020019081526020016000206000015403600760003373ffffffffffffffffffffffffffffffffffffffff1673ffffffffffffffffffffffffffffffffffffffff168152602001908152602001600020600001819055507fcf2eef3721a1c2d654258fa536af37d30a10f891414e807e1048ec6c69401bbf816040518082815260200180602001828103825260048152602001807f4c6f7374000000000000000000000000000000000000000000000000000000008152506020019250505060405180910390a15b80600760003373ffffffffffffffffffffffffffffffffffffffff1673ffffffffffffffffffffffffffffffffffffffff1681526020019081526020016000206000015401915050919050565b6000600980549050905090565b6000600760003373ffffffffffffffffffffffffffffffffffffffff1673ffffffffffffffffffffffffffffffffffffffff16815260200190815260200160002060000154905090565b60008034141561123a57600080fd5b34600760003373ffffffffffffffffffffffffffffffffffffffff1673ffffffffffffffffffffffffffffffffffffffff168152602001908152602001600020600001600082825401925050819055506000600760003373ffffffffffffffffffffffffffffffffffffffff1673ffffffffffffffffffffffffffffffffffffffff16815260200190815260200160002060010160006101000a81548160ff0219169083151502179055507f20f1700dd64cac43429a31f69793878e9f4ba37249d0a39d6b2ddcc4fcea593d600760003373ffffffffffffffffffffffffffffffffffffffff1673ffffffffffffffffffffffffffffffffffffffff168152602001908152602001600020600001546040518082815260200191505060405180910390a134905090565b60065481565b60086020528060005260406000206000915090508060000154908060010160009054906101000a900473ffffffffffffffffffffffffffffffffffffffff16908060020154908060030154905084565b600080831180156113cc575060208311155b6113d557600080fd5b600a84029350606060016040519080825280601f01601f1916602001820160405280156114115781602001600182028038833980820191505090505b5090508360f81b8160008151811061142557fe5b60200101907effffffffffffffffffffffffffffffffffffffffffffffffffffffffffffff1916908160001a905350606060206040519080825280601f01601f19166020018201604052801561148a5781602001600182028038833980820191505090505b509050606060206040519080825280601f01601f1916602001820160405280156114c35781602001600182028038833980820191505090505b50905060006114d0611c75565b905060208352424118600143034018602084015260208252806020830152606060206040519080825280601f01601f1916602001820160405280156115245781602001600182028038833980820191505090505b509050886020820152606060086040519080825280601f01601f1916602001820160405280156115635781602001600182028038833980820191505090505b5090506115768260186008846000611f95565b5061157f61327b565b604051806080016040528087815260200188815260200186815260200184815250905060006115e46040518060400160405280600681526020017f72616e646f6d0000000000000000000000000000000000000000000000000000815250838c611ff4565b9050606060086040519080825280601f01601f19166020018201604052801561161c5781602001600182028038833980820191505090505b50905060208401517f0100000000000000000000000000000000000000000000000000000000000000810460278301537e01000000000000000000000000000000000000000000000000000000000000810460268301537d010000000000000000000000000000000000000000000000000000000000810460258301537c0100000000000000000000000000000000000000000000000000000000810460248301537b01000000000000000000000000000000000000000000000000000000810460238301537a01000000000000000000000000000000000000000000000000000081046022830153790100000000000000000000000000000000000000000000000000810460218301537801000000000000000000000000000000000000000000000000810460208301535061194282828560016004811061175b57fe5b602002015160028760006004811061176f57fe5b60200201516040518082805190602001908083835b602083106117a75780518252602082019150602081019050602083039250611784565b6001836020036101000a038019825116818451168082178552505050505050905001915050602060405180830381855afa1580156117e9573d6000803e3d6000fd5b5050506040513d60208110156117fe57600080fd5b81019080805190602001909291905050508760026004811061181c57fe5b60200201516040516020018085805190602001908083835b602083106118575780518252602082019150602081019050602083039250611834565b6001836020036101000a03801982511681845116808217855250505050505090500184805190602001908083835b602083106118a85780518252602082019150602081019050602083039250611885565b6001836020036101000a03801982511681845116808217855250505050505090500183815260200182805190602001908083835b602083106118ff57805182526020820191506020810190506020830392506118dc565b6001836020036101000a03801982511681845116808217855250505050505090500194505050505060405160208183030381529060405280519060200120612363565b8199505050505050505050509392505050565b60008073ffffffffffffffffffffffffffffffffffffffff16600260009054906101000a900473ffffffffffffffffffffffffffffffffffffffff1673ffffffffffffffffffffffffffffffffffffffff1614806119dd575060006119db600260009054906101000a900473ffffffffffffffffffffffffffffffffffffffff1661237f565b145b156119ee576119ec600061238a565b505b600260009054906101000a900473ffffffffffffffffffffffffffffffffffffffff1673ffffffffffffffffffffffffffffffffffffffff166338cc48316040518163ffffffff1660e01b8152600401602060405180830381600087803b158015611a5857600080fd5b505af1158015611a6c573d6000803e3d6000fd5b505050506040513d6020811015611a8257600080fd5b810190808051906020019092919050505073ffffffffffffffffffffffffffffffffffffffff16600160009054906101000a900473ffffffffffffffffffffffffffffffffffffffff1673ffffffffffffffffffffffffffffffffffffffff1614611bcd57600260009054906101000a900473ffffffffffffffffffffffffffffffffffffffff1673ffffffffffffffffffffffffffffffffffffffff166338cc48316040518163ffffffff1660e01b8152600401602060405180830381600087803b158015611b5157600080fd5b505af1158015611b65573d6000803e3d6000fd5b505050506040513d6020811015611b7b57600080fd5b8101908080519060200190929190505050600160006101000a81548173ffffffffffffffffffffffffffffffffffffffff021916908373ffffffffffffffffffffffffffffffffffffffff1602179055505b600160009054906101000a900473ffffffffffffffffffffffffffffffffffffffff1673ffffffffffffffffffffffffffffffffffffffff1663c281d19e6040518163ffffffff1660e01b815260040160206040518083038186803b158015611c3557600080fd5b505afa158015611c49573d6000803e3d6000fd5b505050506040513d6020811015611c5f57600080fd5b8101908080519060200190929190505050905090565b60008073ffffffffffffffffffffffffffffffffffffffff16600260009054906101000a900473ffffffffffffffffffffffffffffffffffffffff1673ffffffffffffffffffffffffffffffffffffffff161480611cfd57506000611cfb600260009054906101000a900473ffffffffffffffffffffffffffffffffffffffff1661237f565b145b15611d0e57611d0c600061238a565b505b600260009054906101000a900473ffffffffffffffffffffffffffffffffffffffff1673ffffffffffffffffffffffffffffffffffffffff166338cc48316040518163ffffffff1660e01b8152600401602060405180830381600087803b158015611d7857600080fd5b505af1158015611d8c573d6000803e3d6000fd5b505050506040513d6020811015611da257600080fd5b810190808051906020019092919050505073ffffffffffffffffffffffffffffffffffffffff16600160009054906101000a900473ffffffffffffffffffffffffffffffffffffffff1673ffffffffffffffffffffffffffffffffffffffff1614611eed57600260009054906101000a900473ffffffffffffffffffffffffffffffffffffffff1673ffffffffffffffffffffffffffffffffffffffff166338cc48316040518163ffffffff1660e01b8152600401602060405180830381600087803b158015611e7157600080fd5b505af1158015611e85573d6000803e3d6000fd5b505050506040513d6020811015611e9b57600080fd5b8101908080519060200190929190505050600160006101000a81548173ffffffffffffffffffffffffffffffffffffffff021916908373ffffffffffffffffffffffffffffffffffffffff1602179055505b600160009054906101000a900473ffffffffffffffffffffffffffffffffffffffff1673ffffffffffffffffffffffffffffffffffffffff1663abaa5f3e6040518163ffffffff1660e01b815260040160206040518083038186803b158015611f5557600080fd5b505afa158015611f69573d6000803e3d6000fd5b505050506040513d6020811015611f7f57600080fd5b8101908080519060200190929190505050905090565b6060600082850190508084511015611fac57600080fd5b600086602001905060008460200190505b868860200101821015611fe55781890151808288015250602082019150602081019050611fbd565b85935050505095945050505050565b60008073ffffffffffffffffffffffffffffffffffffffff16600260009054906101000a900473ffffffffffffffffffffffffffffffffffffffff1673ffffffffffffffffffffffffffffffffffffffff16148061207c5750600061207a600260009054906101000a900473ffffffffffffffffffffffffffffffffffffffff1661237f565b145b1561208d5761208b600061238a565b505b600260009054906101000a900473ffffffffffffffffffffffffffffffffffffffff1673ffffffffffffffffffffffffffffffffffffffff166338cc48316040518163ffffffff1660e01b8152600401602060405180830381600087803b1580156120f757600080fd5b505af115801561210b573d6000803e3d6000fd5b505050506040513d602081101561212157600080fd5b810190808051906020019092919050505073ffffffffffffffffffffffffffffffffffffffff16600160009054906101000a900473ffffffffffffffffffffffffffffffffffffffff1673ffffffffffffffffffffffffffffffffffffffff161461226c57600260009054906101000a900473ffffffffffffffffffffffffffffffffffffffff1673ffffffffffffffffffffffffffffffffffffffff166338cc48316040518163ffffffff1660e01b8152600401602060405180830381600087803b1580156121f057600080fd5b505af1158015612204573d6000803e3d6000fd5b505050506040513d602081101561221a57600080fd5b8101908080519060200190929190505050600160006101000a81548173ffffffffffffffffffffffffffffffffffffffff021916908373ffffffffffffffffffffffffffffffffffffffff1602179055505b606060046040519080825280602002602001820160405280156122a357816020015b606081526020019060019003908161228e5790505b509050836000600481106122b357fe5b6020020151816000815181106122c557fe5b6020026020010181905250836001600481106122dd57fe5b6020020151816001815181106122ef57fe5b60200260200101819052508360026004811061230757fe5b60200201518160028151811061231957fe5b60200260200101819052508360036004811061233157fe5b60200201518160038151811061234357fe5b602002602001018190525061235985828561239b565b9150509392505050565b8060046000848152602001908152602001600020819055505050565b6000813b9050919050565b6000612394612901565b9050919050565b60008073ffffffffffffffffffffffffffffffffffffffff16600260009054906101000a900473ffffffffffffffffffffffffffffffffffffffff1673ffffffffffffffffffffffffffffffffffffffff16148061242357506000612421600260009054906101000a900473ffffffffffffffffffffffffffffffffffffffff1661237f565b145b1561243457612432600061238a565b505b600260009054906101000a900473ffffffffffffffffffffffffffffffffffffffff1673ffffffffffffffffffffffffffffffffffffffff166338cc48316040518163ffffffff1660e01b8152600401602060405180830381600087803b15801561249e57600080fd5b505af11580156124b2573d6000803e3d6000fd5b505050506040513d60208110156124c857600080fd5b810190808051906020019092919050505073ffffffffffffffffffffffffffffffffffffffff16600160009054906101000a900473ffffffffffffffffffffffffffffffffffffffff1673ffffffffffffffffffffffffffffffffffffffff161461261357600260009054906101000a900473ffffffffffffffffffffffffffffffffffffffff1673ffffffffffffffffffffffffffffffffffffffff166338cc48316040518163ffffffff1660e01b8152600401602060405180830381600087803b15801561259757600080fd5b505af11580156125ab573d6000803e3d6000fd5b505050506040513d60208110156125c157600080fd5b8101908080519060200190929190505050600160006101000a81548173ffffffffffffffffffffffffffffffffffffffff021916908373ffffffffffffffffffffffffffffffffffffffff1602179055505b6000600160009054906101000a900473ffffffffffffffffffffffffffffffffffffffff1673ffffffffffffffffffffffffffffffffffffffff16632ef3accc86856040518363ffffffff1660e01b81526004018080602001838152602001828103825284818151815260200191508051906020019080838360005b838110156126aa57808201518184015260208101905061268f565b50505050905090810190601f1680156126d75780820380516001836020036101000a031916815260200191505b509350505050602060405180830381600087803b1580156126f757600080fd5b505af115801561270b573d6000803e3d6000fd5b505050506040513d602081101561272157600080fd5b81019080805190602001909291905050509050823a02670de0b6b3a764000001811115612754576000801b9150506128fa565b606061275f85612e58565b9050600160009054906101000a900473ffffffffffffffffffffffffffffffffffffffff1673ffffffffffffffffffffffffffffffffffffffff1663c55c1cb68360008985896040518663ffffffff1660e01b8152600401808581526020018060200180602001848152602001838103835286818151815260200191508051906020019080838360005b838110156128045780820151818401526020810190506127e9565b50505050905090810190601f1680156128315780820380516001836020036101000a031916815260200191505b50838103825285818151815260200191508051906020019080838360005b8381101561286a57808201518184015260208101905061284f565b50505050905090810190601f1680156128975780820380516001836020036101000a031916815260200191505b5096505050505050506020604051808303818588803b1580156128b957600080fd5b505af11580156128cd573d6000803e3d6000fd5b50505050506040513d60208110156128e457600080fd5b8101908080519060200190929190505050925050505b9392505050565b600080612921731d3b2638a7cc9f2cb3d298a3da7a90b67e5506ed61237f565b11156129c357731d3b2638a7cc9f2cb3d298a3da7a90b67e5506ed600260006101000a81548173ffffffffffffffffffffffffffffffffffffffff021916908373ffffffffffffffffffffffffffffffffffffffff1602179055506129ba6040518060400160405280600b81526020017f6574685f6d61696e6e6574000000000000000000000000000000000000000000815250612ed8565b60019050612e55565b60006129e273c03a2615d5efaf5f49f60b7bb6583eaec212fdf161237f565b1115612a845773c03a2615d5efaf5f49f60b7bb6583eaec212fdf1600260006101000a81548173ffffffffffffffffffffffffffffffffffffffff021916908373ffffffffffffffffffffffffffffffffffffffff160217905550612a7b6040518060400160405280600c81526020017f6574685f726f707374656e330000000000000000000000000000000000000000815250612ed8565b60019050612e55565b6000612aa373b7a07bcf2ba2f2703b24c0691b5278999c59ac7e61237f565b1115612b455773b7a07bcf2ba2f2703b24c0691b5278999c59ac7e600260006101000a81548173ffffffffffffffffffffffffffffffffffffffff021916908373ffffffffffffffffffffffffffffffffffffffff160217905550612b3c6040518060400160405280600981526020017f6574685f6b6f76616e0000000000000000000000000000000000000000000000815250612ed8565b60019050612e55565b6000612b6473146500cfd35b22e4a392fe0adc06de1a1368ed4861237f565b1115612c065773146500cfd35b22e4a392fe0adc06de1a1368ed48600260006101000a81548173ffffffffffffffffffffffffffffffffffffffff021916908373ffffffffffffffffffffffffffffffffffffffff160217905550612bfd6040518060400160405280600b81526020017f6574685f72696e6b656279000000000000000000000000000000000000000000815250612ed8565b60019050612e55565b6000612c2573a2998efd205fb9d4b4963afb70778d6354ad3a4161237f565b1115612cc75773a2998efd205fb9d4b4963afb70778d6354ad3a41600260006101000a81548173ffffffffffffffffffffffffffffffffffffffff021916908373ffffffffffffffffffffffffffffffffffffffff160217905550612cbe6040518060400160405280600a81526020017f6574685f676f65726c6900000000000000000000000000000000000000000000815250612ed8565b60019050612e55565b6000612ce6736f485c8bf6fc43ea212e93bbf8ce046c7f1cb47561237f565b1115612d4a57736f485c8bf6fc43ea212e93bbf8ce046c7f1cb475600260006101000a81548173ffffffffffffffffffffffffffffffffffffffff021916908373ffffffffffffffffffffffffffffffffffffffff16021790555060019050612e55565b6000612d697320e12a1f859b3feae5fb2a0a32c18f5a65555bbf61237f565b1115612dcd577320e12a1f859b3feae5fb2a0a32c18f5a65555bbf600260006101000a81548173ffffffffffffffffffffffffffffffffffffffff021916908373ffffffffffffffffffffffffffffffffffffffff16021790555060019050612e55565b6000612dec7351efaf4c8b3c9afbd5ab9f4bbc82784ab6ef8faa61237f565b1115612e50577351efaf4c8b3c9afbd5ab9f4bbc82784ab6ef8faa600260006101000a81548173ffffffffffffffffffffffffffffffffffffffff021916908373ffffffffffffffffffffffffffffffffffffffff16021790555060019050612e55565b600090505b90565b6060612e62612ef2565b612e6a6132a2565b612e7681610400612efe565b612e7f81612f48565b60008090505b8351811015612ec157612eb4848281518110612e9d57fe5b602002602001015183612f5690919063ffffffff16565b8080600101915050612e85565b50612ecb81612f7b565b8060000151915050919050565b8060039080519060200190612eee9291906132bc565b5050565b60405180590338823950565b6000819050600060208281612f0f57fe5b0614612f285760208181612f1f57fe5b06602003810190505b808360200181815250506040518084526000815281810160405250505050565b612f53816004612f89565b50565b612f638260028351612faa565b612f7681836130ea90919063ffffffff16565b505050565b612f86816007612f89565b50565b612fa6601f60058360ff16901b178361319590919063ffffffff16565b5050565b60178111612fd657612fd18160058460ff16901b60ff16178461319590919063ffffffff16565b6130e5565b60ff811161301757612ffb601860058460ff16901b178461319590919063ffffffff16565b613011816001856131d59092919063ffffffff16565b506130e4565b61ffff81116130595761303d601960058460ff16901b178461319590919063ffffffff16565b613053816002856131d59092919063ffffffff16565b506130e3565b63ffffffff811161309d57613081601a60058460ff16901b178461319590919063ffffffff16565b613097816004856131d59092919063ffffffff16565b506130e2565b67ffffffffffffffff81116130e1576130c9601b60058460ff16901b178461319590919063ffffffff16565b6130df816008856131d59092919063ffffffff16565b505b5b5b5b5b505050565b6130f26132a2565b826020015183600001515183510111156131225761312183600261311b8660200151865161323c565b02613258565b5b60008060008451905085518051602081830101945086518101825260208701935050505b602081106131695781518352602083019250602082019150602081039050613146565b60006001826020036101000a039050801983511681855116818117865250508694505050505092915050565b816020015160018360000151510111156131bb576131ba826002846020015102613258565b5b815180516020818301018381536001820183525050505050565b6131dd6132a2565b83602001518460000151518301111561320b5761320a84600261320487602001518661323c565b02613258565b5b60006001836101000a0390508451805184818301018684198251161781528582018352505050849150509392505050565b60008183111561324e57829050613252565b8190505b92915050565b60608260000151905061326b8383612efe565b61327583826130ea565b50505050565b60405180608001604052806004905b606081526020019060019003908161328a5790505090565b604051806040016040528060608152602001600081525090565b828054600181600116156101000203166002900490600052602060002090601f016020900481019282601f106132fd57805160ff191683800117855561332b565b8280016001018555821561332b579182015b8281111561332a57825182559160200191906001019061330f565b5b509050613338919061333c565b5090565b61335e91905b8082111561335a576000816000905550600101613342565b5090565b9056fe47616d626c6520616464656420746f2071756575652c207761697420666f722043616c6c4261636ba265627a7a723158208940ce44485b189d26a3b31835818876f0b8332e02e9bb5ac1c63431a5f5434064736f6c634300050c003247616d626c6520616464656420746f2071756575652c207761697420666f722043616c6c4261636b",
  "source": "pragma solidity 0.5.12;\nimport \"./Ownable.sol\";\nimport \"./provableAPI.sol\";\n\ncontract CoinFlip is Ownable, usingProvable{\n\n  //vaiables for API call\n  uint256 constant NUM_RANDOM_BYTES_REQUESTED = 1;\n  uint256 public latestNumber;\n\n  //struct for accounts\n  struct account{\n    uint balance;\n    bool gambling;\n  }\n  //mapping array to hold accounts\n  mapping (address => account) public accounts;\n\n  //struct to hold the information on bets\n  struct bet{\n    uint256 amountGambled;\n    address gambler;\n    uint gamblersPick;\n    uint256 outcome;\n  }\n\n  //mapping for users balance and connecting _queryIDs to bets, struct to enumerate list of bets\n  mapping (bytes32 => bet) public betsPlaced;\n  bytes32[] public betsList;\n\n\n  //events for each function\n  event depositReceived(uint funds); //fundAccount\n  event logNewProvableQuery(string description); //update\n  event generateRandomNumber(uint256 randomNumber); //__callback\n  event gambleWon(uint amount, string marker); //_Payout\n  event gambleLost(uint amount, string marker); //_payout\n\n  //calls update() at launch to get a random number initally\n  constructor() public{\n    update(0,2);\n    accounts[msg.sender].balance = 0;\n    accounts[msg.sender].gambling = false;\n  }\n\n  // funciton to add balance to a users account\n  function fundAccount() public payable returns(uint){\n    require(msg.value != 0);\n    accounts[msg.sender].balance += msg.value;\n    accounts[msg.sender].gambling = false;\n    emit depositReceived(accounts[msg.sender].balance);\n    return msg.value;\n  }\n\n  // function that takes users choice and amount to gamble, calls API, and pays out results\n  function gamble(uint amountGambled, uint userCoinFacePick) public {\n    // require the user to have enough funds\n    require(accounts[msg.sender].balance >= amountGambled, \"Balance not Sufficient\");\n    //require users to pick a side of Coin\n    require(userCoinFacePick <= 1 , \"Must Choose Heads or Tails\");\n    //require user not to be gambling\n    require(accounts[msg.sender].gambling != true);\n    accounts[msg.sender].gambling = true;\n\n    //integrate update funciton\n    update(amountGambled, userCoinFacePick);\n  }\n\n    //gets current users balance\n    function checkBalance() public view returns(uint){\n      return accounts[msg.sender].balance;\n    }\n\n    //allows user to withdraw funds\n    function withdrawAll() public returns(uint){\n      msg.sender.transfer(accounts[msg.sender].balance);\n      accounts[msg.sender].balance = 0;\n      return accounts[msg.sender].balance;\n    }\n\n    // Random Number Generator and Callback functions\n    function __callback(bytes32 _queryID, string memory _result, bytes memory _proof) public{\n      require(msg.sender == provable_cbAddress());\n      uint256 randomNumber = uint256(keccak256(abi.encodePacked(_result))) % 2;\n      latestNumber = randomNumber;\n      betsPlaced[_queryID].outcome = latestNumber;\n      address gambler = betsPlaced[_queryID].gambler;\n      accounts[gambler].gambling = false;\n      //Take amount, coinFlip, and user choice to create Payout\n      _Payout(_queryID);\n      emit generateRandomNumber(randomNumber);\n    }\n\n  function update(uint256 amountGambled, uint userCoinFacePick) public payable{\n    uint256 QUERY_EXECUTION_DELAY = 0;\n    uint256 GAS_FOR_CALLBACK = 200000;\n    bytes32 _queryID = provable_newRandomDSQuery(\n      QUERY_EXECUTION_DELAY,\n      NUM_RANDOM_BYTES_REQUESTED,\n      GAS_FOR_CALLBACK\n      );\n      //map bytes32 to bet and push to betsList\n      betsPlaced[_queryID].amountGambled = amountGambled;\n      betsPlaced[_queryID].gambler = msg.sender;\n      betsPlaced[_queryID].gamblersPick = userCoinFacePick;\n      betsPlaced[_queryID].outcome = 10;\n      betsList.push(_queryID);\n      emit logNewProvableQuery(\"Gamble added to queue, wait for CallBack\");\n    }\n\n    //function that pays out based on results\n    function _Payout(bytes32 _queryID) public returns(uint){\n      uint256 amountGambled = betsPlaced[_queryID].amountGambled;\n      if (betsPlaced[_queryID].gamblersPick == betsPlaced[_queryID].outcome){\n        accounts[msg.sender].balance = accounts[msg.sender].balance + amountGambled;\n        emit gambleWon(amountGambled, \"Won\");\n      }\n      if (betsPlaced[_queryID].gamblersPick != betsPlaced[_queryID].outcome){\n        accounts[msg.sender].balance = accounts[msg.sender].balance - amountGambled;\n        emit gambleLost(amountGambled, \"Lost\");\n      }\n      return (accounts[msg.sender].balance + amountGambled);\n\n    }\n\n    //allows js to get total bets placed to call\n    function returnTotalBets() public view returns(uint){\n      return betsList.length;\n    }\n\n    function currentlyGambling()public view returns(string memory){\n      if(accounts[msg.sender].gambling == true){\n        string memory x = \"Are\";\n        return (x);\n      }\n      if (accounts[msg.sender].gambling == false){\n        string memory y = \"Are Not\";\n        return (y);\n      }\n\n    }\n}\n",
  "sourcePath": "/Users/Kaiju/Desktop/Courses/IoT/ETH SC201/CoinFlip3/contracts/Coinflip.sol",
  "compiler": {
    "name": "solc",
    "version": "0.5.12+commit.7709ece9.Emscripten.clang"
  },
  "schemaVersion": "3.3.3",
  "updatedAt": "2021-02-17T01:22:51.534Z",
  "devdoc": {
    "methods": {
      "__callback(bytes32,string)": {
        "details": "The following `__callback` functions are just placeholders ideally     meant to be defined in child contract when proofs are used.     The function bodies simply silence compiler warnings."
      }
    }
  },
  "userdoc": {
    "methods": {}
  }
}